:100000009EC0C2C0EEC0C0C0BFC4BEC0BDC0BCC0E8
:10001000BBC0BAC0B9C0B8C0B7C0B6C0B5C0756EB5
:10002000616D6500636174202F6574632F70617367
:1000300073776400756E616D65202D61002A2B2831
:1000400000000000000000000000000000000000B0
:1000500029000000002C9EB4A0A1A2A434A6A7A54C
:10006000AE362D3738271E1F20212223242526B304
:1000700033B62EB7B89F8485868788898A8B8C8D06
:100080008E8F909192939495969798999A9B9C9D18
:100090002F3130A3AD350405060708090A0B0C0DF6
:1000A0000E0F101112131415161718191A1B1C1DF8
:1000B000AFB1B0B505010906A101050719E029E7AF
:1000C00015002501750195088102950175082565C2
:1000D000190029658100C009022200010100803257
:1000E00009040000010301010009210101000122AE
:1000F00023000705810308000A1201100100000017
:1001000008C016DB2700010102000110034400694A
:1001100000670069004B00650079001C03640069FA
:1001200000670069007300740075006D0070002E98
:100130000063006F006D000403090400180311241C
:100140001FBECFE5D2E0DEBFCDBF10E0A0E6B0E03D
:10015000ECE2FBE002C005900D92A237B107D9F79F
:1001600020E0A2E7B0E001C01D92A83BB207E1F792
:1001700011E0CEE3D1E003C02297FE01D1D4CC330D
:10018000D107D1F76DD4D0C43BCFA82FB92F80E0D1
:1001900090E041E050EA609530E009C02D9182275F
:1001A0009795879510F084279527305EC8F36F5F89
:1001B000A8F30895EADF8D939D930895A6E088271C
:1001C0009927AA9569F00197E1F3B399FCCFB39B06
:1001D000FECF81E09927A6B3019611F0A871D9F757
:1001E0000895CF93CFB7CF93C395B39BE9F7B39B54
:1001F0000BC0B39B09C0B39B07C0B39B05C0B39BA7
:1002000003C0B39B01C0D5C00F92DF93C0919B0088
:10021000DD27CE55DF4F012EB39B03C0DF910F903A
:10022000E6CF2F930F931F934F932FEF4F6F06B38C
:1002300003FB20F95F933F9350E03BE065C016B3AA
:100240000126502953FDC89556B3012703FB25F914
:100250002F7306B3B1F05027102713FB26F906B20F
:100260002230F0F000C016B3012703FB27F9012666
:10027000502906B22430E8F54F77206816B3000005
:10028000F6CF50274F7D206206B2102F000000C02D
:1002900006B300265029102713FB26F906B2E2CF39
:1002A0004F7B06B3206400C0DACF012650291871B5
:1002B00006B269F14E7F2160012F16B328C00026D7
:1002C00050294D7F06B22260102F29C001265029E7
:1002D0004B7F06B22460012F2DC016B30126502992
:1002E000477F2860000006B22EC04F7E06B3206113
:1002F00030C0422706B3499300265029102706B282
:100300004FEF13FB20F9297F16B379F2187159F1D9
:100310000126502906B2012703FB21F9237F06B3EA
:1003200071F2002650293150D0F006B2102713FB8D
:1003300022F9277E16B351F201265029012703FB2B
:1003400006B223F92F7C49F2000006B3102713FBF5
:1003500024F90026502906B22F7939F270CF10E225
:100360001ABF002719C03B503195C31BD04010E283
:100370001ABF0881033C09F10B34F9F02091990070
:100380001981110F1213EDCF4A81441F093651F123
:100390000D3211F0013E29F70093A0003F915F91CB
:1003A0004F911F910F912F91DF910F90CAB7C5FD0B
:1003B0001BCFCF91CFBFCF9118952091A0002223C2
:1003C00069F310919E00112379F534307AF130935E
:1003D0009E0020939A0010919B003BE0311B3093CC
:1003E0009B0024C000919E000130F4F40AE54F7098
:1003F00049F43091670034FD1AC000936700C2E8E9
:10040000D0E019C030918D0034FD11C000938D00F3
:10041000CEE8D0E010C0052710E000C021C00527BD
:1004200010E0C89508BB14C03AE501C032ED032EB8
:10043000C0E0D0E032E017B31861C39A08B317BB2D
:1004400058E120E84FEF20FF052708BB27951795B7
:100450001C3F28F700004552B0F720FF05272795DD
:1004600008BB17951C3FB8F629913A9561F7077EAE
:1004700010919F00110F08BBC250D04011F0109393
:10048000990010E21ABF086017B3177E402F477E0D
:1004900054E05A95F1F708BB17BB48BB7FCF8F924A
:1004A0009F92AF92BF92CF92DF92EF92FF92CF9343
:1004B000DF9300D000D0CDB7DEB76B017C01ABD2AB
:1004C0004B015C011C141D041E041F049CF4A3D2E8
:1004D000C61AD70AE80AF90AC80CD91CEA1CFB1C80
:1004E00069837A838B839C8321D169817A818B8113
:1004F0009C81E6CF0F900F900F900F90DF91CF91DE
:10050000FF90EF90DF90CF90BF90AF909F908F9033
:1005100008950F931F93CF93DF9300D0CDB7DEB72D
:100520008C0180918D0084FD0CC04A836983FED0CC
:1005300080E990E50197F1F700C0000069814A81E8
:10054000F0CFF8014283638362E0C80102960F9006
:100550000F90DF91CF911F910F91C4C0CF93DF9384
:10056000EC01D7DF40E060E0CE01DF91CF91D1CF49
:10057000E62FF0E0EB5CFF4F6491262F30E0220F76
:10058000232F221F330B232B11F040E201C040E048
:100590006F77E4DF81E090E00895FC0184E790E06C
:1005A00090939D0080939C0080818076803231F40E
:1005B00081818A3019F483818093760080E00895E8
:1005C00040E060E082E790E0C9DF64EF71E080E046
:1005D00090E065DF64E370E082E790E07CD240E089
:1005E00068E282E790E0BADF68EE73E080E090E0D6
:1005F00056DF64E270E082E790E06DD240E068E2AE
:1006000082E790E0ABDF6CED75E080E090E047DFE3
:100610006EE170E082E790E05ED240E068E282E75F
:1006200090E09CDF60E573EC80E090E038CF0895C7
:100630008CE690E09093730080937200F894BB9ADC
:1006400027EA86E99CE0215080409040E1F700C015
:100650000000BB987FD178941092750010927400BE
:1006600062E084E790E03EC0DF92EF92FF920F934A
:100670001F93CF93DF93C8E0D0E0F12C80E8E82E01
:10068000DF2CDE0CD1BE9ADD8C01043389E0180723
:100690000CF4FD2CE694219799F78FEF8F0D81BF15
:1006A000CF2DD0E0219681B790E0C817D9078CF004
:1006B00085DD8453994097FF03C0919581959109F9
:1006C0008017910714F4F1B68C0181B78F5F81BF59
:1006D000EACFF1BEDF91CF911F910F91FF90EF9084
:1006E000DF900895CF93C62F20918D0024FF07C07F
:1006F00020918E0038E8232720938E0003C02AE53E
:1007000020938D00DC01EFE8F0E09C2F9E0F8D918F
:100710008193892F8E1B1816D4F36C2F8FE890E0ED
:1007200049DDCC5FC0938D00CF910895CF93DF93C7
:1007300080919E00835087FDA8C090919B002091DE
:100740009A002D3209F09FC0883009F09CC0CCE09F
:10075000D0E0C91BD109CE55DF4F83EC80938200D6
:100760008AE580936700109278008881807619F07E
:10077000CE0113DF7FC09A8110928B008981811195
:1007800006C010928C002BE830E082E06FC085300C
:1007900019F490939F0067C0863009F04EC08B819A
:1007A000813041F489EF90E090939D0080939C000C
:1007B00082E13FC0823041F487ED90E090939D004C
:1007C00080939C0082E235C08330F1F4911108C01F
:1007D00087E391E090939D0080939C0084E029C082
:1007E000913041F48BE191E090939D0080939C00C7
:1007F0008CE11FC09230E1F48BE091E090939D007A
:1008000080939C0080E115C0813241F489EE90E034
:1008100090939D0080939C0089E00BC0823241F44C
:1008200084EB90E090939D0080939C0083E201C054
:1008300080E090E4909378001DC0883069F08930A2
:1008400019F49093A1000FC08A3049F08B3059F40D
:100850008BE480938E0007C021EA30E002C02BE8D1
:1008600030E081E003C02BE830E080E030939D0071
:1008700020939C009F81911104C09E81981708F4D9
:10088000892F8093660010929E008091670084FFFC
:1008900046C0809166008F3F09F441C0C82F89305F
:1008A00008F0C8E08C1B809366008091820098E875
:1008B000892780938200CC2331F120919C003091D4
:1008C0009D008091780086FF0BC0A3E8B0E0F9019D
:1008D0008C2F8A0F94919D9331968A13FBCF09C078
:1008E000D901E3E8F0E08C2F8E0F9D9191938E1348
:1008F000FCCF8FEF8C0F90E00196820F931F9093A7
:100900009D0080939C006C2F83E890E053DCCC5FCB
:10091000CC3019F08FEF80936600C093670084E1BC
:1009200096B3987131F48150D9F710929F001092CC
:100930009900C1E08111C0E0809177008C1739F0F7
:10094000C11103C0F89490DE7894C0937700DF91D2
:10095000CF910895AC9A8BB780628BBF8BE4809364
:100960008E008AE580938D00089583B7887F83BFCA
:100970008AB58C7F81608ABD83B7877F83BF83B749
:10098000887F836083BF089578941F920F920FB67B
:100990000F9211242F933F938F939F93AF93BF9305
:1009A00080917A0090917B00A0917C00B0917D00B5
:1009B000309179002CE7230F2D3728F02FEF230FEC
:1009C0000196A11DB11D2093790080937A00909328
:1009D0007B00A0937C00B0937D0080917E0090917D
:1009E0007F00A0918000B09181000196A11DB11DF2
:1009F00080937E0090937F00A0938000B09381004D
:100A0000BF91AF919F918F913F912F910F900FBE0A
:100A10000F901F9018952FB7F89460917A007091FD
:100A20007B0080917C0090917D002FBF0895789489
:100A300080B7806880BF80B7806480BF8CB58064D9
:100A40008CBD8FEF8DBD80B7807F876080BF89B7F9
:100A5000846089BF8ADF86B1876086B9379A089536
:100A6000E6DFAEDDE4DDFECF0F931F93CF93DF9380
:100A7000EC018B01F80161918F01662341F0E8815F
:100A8000F9810190F081E02DCE010995F3CFDF913E
:100A9000CF911F910F910895EF92FF920F931F93A3
:100AA000CF93DF937C018A01EB01060F171FC0175C
:100AB000D10751F06991D701ED91FC910190F0813E
:100AC000E02DC7010995F3CFDF91CF911F910F91D1
:100AD000FF90EF900895EF92FF920F931F93CF93A3
:100AE000DF938C017B01FB016491C0E0D0E06623C1
:100AF00069F0F801A081B181ED91FC91C8010995DF
:100B00002196FE01EE0DFF1D6491F1CFCE01DF9124
:100B1000CF911F910F91FF90EF900895EE0FFF1F5F
:0C0B20000590F491E02D0994F894FFCFAB
:100B2C000000B8008000FF5A00000000B802340535
:020B3C004C0566
:00000001FF
