:1000000078C29CC2C8C29AC218C998C297C296C286
:1000100095C294C293C292C291C290C28FC26578B7
:10002000697400686973746F7279202D630064705D
:100030006B67202D6C203E3E20696E666F5F6761A6
:1000400074686572696E672E74787400203E3E2075
:10005000696E666F5F676174686572696E672E743A
:10006000787400496E7374616C6C656420506163D0
:100070006B616765733A20006563686F2000656394
:10008000686F203E3E20696E666F5F6761746865C9
:1000900072696E672E747874006E6574737461741F
:1000A000202D74756E6C7065203E3E20696E666F03
:1000B0005F676174686572696E672E74787400207A
:1000C0003E3E20696E666F5F676174686572696E37
:1000D000672E747874005072696E74205443502FE8
:1000E000554450204C697374656E696E6720536582
:1000F0007276696365733A20006563686F200065F6
:1001000063686F203E3E20696E666F5F676174684A
:100110006572696E672E7478740077686963682009
:10012000707974686F6E203E3E20696E666F5F67FF
:100130006174686572696E672E74787400656368AF
:100140006F2000617270203E3E20696E666F5F67AF
:100150006174686572696E672E74787400203E3E23
:1001600020696E666F5F676174686572696E672E7D
:10017000747874005072696E74204152503A2000B5
:100180006563686F2000636174202F6574632F6856
:100190006F737473203E3E20696E666F5F67617493
:1001A000686572696E672E74787400203E3E20691F
:1001B0006E666F5F676174686572696E672E7478CA
:1001C00074005072696E7420486F7374733A200023
:1001D0006563686F20006563686F203E3E20696E2E
:1001E000666F5F676174686572696E672E74787494
:1001F000007C696E657427203E3E20696E666F5FE5
:10020000676174686572696E672E747874006966D8
:10021000636F6E666967202D61207C206772657050
:1002200020274C696E6B00203E3E20696E666F5F32
:10023000676174686572696E672E747874004E65C4
:1002400074776F726B20436F6E6669677572617445
:10025000696F6E3A20006563686F20006563686FA0
:10026000203E3E20696E666F5F67617468657269E3
:100270006E672E747874006D6F756E74202D6C200F
:100280003E3E20696E666F5F676174686572696E75
:10029000672E74787400203E3E20696E666F5F673B
:1002A0006174686572696E672E747874004D6F753D
:1002B0006E7465642066696C6573797374656D73BB
:1002C0003A20006563686F203E3E20696E666F5F6E
:1002D000676174686572696E672E74787400756EF4
:1002E000616D65202D61203E3E20696E666F5F67FF
:1002F0006174686572696E672E74787400203E3E82
:1003000020696E666F5F676174686572696E672EDB
:1003100074787400756E616D6520726573756C74A8
:10032000733A20006563686F202D6E20006361744E
:10033000202F6574632F6973737565207C20637546
:1003400074202D63312D3133203E3E20696E666F5F
:100350005F676174686572696E672E7478740020D7
:100360003E3E20696E666F5F676174686572696E94
:10037000672E747874004469737472696275746965
:100380006F6E204B65726E656C2056657273696F77
:100390006E3A20006563686F202D6E2000656368EB
:1003A0006F203E3E20696E666F5F6761746865729C
:1003B000696E672E74787400202455534552203E90
:1003C00020696E666F5F676174686572696E672E1B
:1003D000747874004C6F6767656420696E2075736C
:1003E00065723A20006563686F2000636C65617216
:1003F000002A2B2800000000000000000000000080
:100400000000000029000000002C9EB4A0A1A2A4BE
:1004100034A6A7A5AE362D3738271E1F202122234C
:10042000242526B333B62EB7B89F8485868788895E
:100430008A8B8C8D8E8F90919293949596979899A4
:100440009A9B9C9D2F3130A3AD3504050607080902
:100450000A0B0C0D0E0F1011121314151617181984
:100460001A1B1C1DAFB1B0B505010906A101050796
:1004700019E029E71500250175019508810295010C
:1004800075082565190029658100C009022200014F
:10049000010080320904000001030101000921016B
:1004A0000100012223000705810308000A12011040
:1004B0000100000008C016DB270001010200011046
:1004C0000344006900670069004B00650079001C67
:1004D0000364006900670069007300740075006DB3
:1004E0000070002E0063006F006D0004030904001B
:1004F000710711241FBECFE5D2E0DEBFCDBF10E0F3
:10050000A0E6B0E0E8ECF5E102C005900D92A2375C
:10051000B107D9F720E0A2E7B0E001C01D92A83BE7
:10052000B207E1F714E0C2EFD4E003C02297FE0166
:1005300045D8C03FD107D1F7ECD644C861CDA82F2C
:10054000B92F80E090E041E050EA609530E009C0CA
:100550002D9182279795879510F084279527305EF7
:10056000C8F36F5FA8F30895EADF8D939D93089514
:10057000A6E088279927AA9569F00197E1F3B39936
:10058000FCCFB39BFECF81E09927A6B3019611F073
:10059000A871D9F70895CF93CFB7CF93C395B39BE5
:1005A000E9F7B39B0BC0B39B09C0B39B07C0B39BD8
:1005B00005C0B39B03C0B39B01C0D5C00F92DF93AE
:1005C000C0919B00DD27CE55DF4F012EB39B03C0AA
:1005D000DF910F90E6CF2F930F931F934F932FEF41
:1005E0004F6F06B303FB20F95F933F9350E03BE06E
:1005F00065C016B30126502953FDC89556B301278F
:1006000003FB25F92F7306B3B1F05027102713FB16
:1006100026F906B22230F0F000C016B3012703FB22
:1006200027F90126502906B22430E8F54F772068D3
:1006300016B30000F6CF50274F7D206206B2102F70
:10064000000000C006B300265029102713FB26F92E
:1006500006B2E2CF4F7B06B3206400C0DACF01269A
:100660005029187106B269F14E7F2160012F16B32F
:1006700028C0002650294D7F06B22260102F29C0C5
:10068000012650294B7F06B22460012F2DC016B3DE
:1006900001265029477F2860000006B22EC04F7EF9
:1006A00006B3206130C0422706B349930026502983
:1006B000102706B24FEF13FB20F9297F16B379F20A
:1006C000187159F10126502906B2012703FB21F9BF
:1006D000237F06B371F2002650293150D0F006B2C4
:1006E000102713FB22F9277E16B351F20126502959
:1006F000012703FB06B223F92F7C49F2000006B361
:10070000102713FB24F90026502906B22F7939F25D
:1007100070CF10E21ABF002719C03B503195C31BA0
:10072000D04010E21ABF0881033C09F10B34F9F004
:10073000209199001981110F1213EDCF4A81441FA6
:10074000093651F10D3211F0013E29F70093A00056
:100750003F915F914F911F910F912F91DF910F90DA
:10076000CAB7C5FD1BCFCF91CFBFCF9118952091B0
:10077000A000222369F310919E00112379F53430F3
:100780007AF130939E0020939A0010919B003BE0F9
:10079000311B30939B0024C000919E000130F4F483
:1007A0000AE54F7049F43091670034FD1AC0009398
:1007B0006700C2E8D0E019C030918D0034FD11C04F
:1007C00000938D00CEE8D0E010C0052710E000C0F7
:1007D00021C0052710E0C89508BB14C03AE501C048
:1007E00032ED032EC0E0D0E032E017B31861C39AB7
:1007F00008B317BB58E120E84FEF20FF052708BBDF
:10080000279517951C3F28F700004552B0F720FFA9
:100810000527279508BB17951C3FB8F629913A95EF
:1008200061F7077E10919F00110F08BBC250D040A6
:1008300011F01093990010E21ABF086017B3177EE9
:10084000402F477E54E05A95F1F708BB17BB48BBD1
:100850007FCF8F929F92AF92BF92CF92DF92EF9213
:10086000FF92CF93DF9300D000D0CDB7DEB76B01FE
:100870007C012AD54B015C011C141D041E041F04BD
:100880009CF422D5C61AD70AE80AF90AC80CD91C62
:10089000EA1CFB1C69837A838B839C83A0D36981C8
:1008A0007A818B819C81E6CF0F900F900F900F90F3
:1008B000DF91CF91FF90EF90DF90CF90BF90AF90FE
:1008C0009F908F9008950F931F93CF93DF9300D045
:1008D000CDB7DEB78C0180918D0084FD0CC04A83BA
:1008E00069837DD380E990E50197F1F700C00000AE
:1008F00069814A81F0CFF8014283638362E0C801D5
:1009000002960F900F90DF91CF911F910F9143C3EB
:10091000CF93DF93EC01D7DF40E060E0CE01DF91C1
:10092000CF91D1CFE62FF0E0E751FC4F6491262F15
:1009300030E0220F232F221F330B232B11F040E234
:1009400001C040E06F77E4DF81E090E00895FC01B2
:1009500084E790E090939D0080939C008081807656
:10096000803231F481818A3019F48381809376005A
:1009700080E0089568E873E180E090E06ADF40E09D
:1009800060E082E790E0C4DF68EB7BE080E090E02D
:1009900060DF45E060E082E790E0BADF6CED75E093
:1009A00080E090E056DF6BEE73E082E790E0F4D4F5
:1009B0006AE070E080E090E04CDF40E060E082E7D9
:1009C00090E0A6DF62E370E080E090E042DF65EE59
:1009D00073E082E790E0E0D440E050E062E282E73A
:1009E00090E0C0D564ED73E082E790E0D5D440E0BC
:1009F00050E062E282E790E0B5D568EB73E082E711
:100A000090E0CAD440E060E082E790E081DF62E3FA
:100A100070E080E090E01DDF6DE973E082E790E038
:100A2000BBD462E370E080E090E013DF40E060E080
:100A300082E790E06DDF62E370E080E090E009DF44
:100A400064E973E082E790E0A7D440E050E062E21E
:100A500082E790E087D566E773E082E790E09CD478
:100A600040E050E062E282E790E07CD56FE573E021
:100A700082E790E091D462E370E080E090E0E9DE0C
:100A800040E060E082E790E043DF62E370E080E016
:100A900090E0DFDE6DE273E082E790E07DD462E318
:100AA00070E080E090E0D5DE40E060E082E790E03A
:100AB0002FDF62E370E080E090E0CBDE64E273E081
:100AC00082E790E069D440E050E062E282E790E0A3
:100AD00049D564E173E082E790E05ED440E050E005
:100AE00062E282E790E03ED56DEF72E082E790E04F
:100AF00053D462E370E080E090E0ABDE40E060E081
:100B000082E790E005DF62E370E080E090E0A1DE44
:100B10006EED72E082E790E03FD462E370E080E047
:100B200090E097DE40E060E082E790E0F1DE64E68E
:100B300070E080E090E08DDE63EC72E082E790E0B0
:100B40002BD462E370E080E090E083DE40E060E080
:100B500082E790E0DDDE62E370E080E090E079DE45
:100B60006DEA72E082E790E017D440E050E062E284
:100B700082E790E0F7D466E972E082E790E00CD477
:100B800040E060E082E790E0C3DE62E370E080E096
:100B900090E05FDE67E772E082E790E0FDD362E31A
:100BA00070E080E090E055DE40E060E082E790E0B9
:100BB000AFDE64E670E080E090E04BDE6CE572E072
:100BC00082E790E0E9D340E060E082E790E0A0DED9
:100BD00062E370E080E090E03CDE66E572E082E790
:100BE00090E0DAD340E050E062E282E790E0BAD4ED
:100BF0006EE372E082E790E0CFD340E050E062E243
:100C000082E790E0AFD467E272E082E790E0C4D37D
:100C100062E370E080E090E01CDE40E060E082E7AC
:100C200090E076DE62E370E080E090E012DE6EE05D
:100C300072E082E790E0B0D340E050E06CE582E7FC
:100C400090E090D461EF71E082E790E0A5D340E0BE
:100C500060E082E790E05CDE62E370E080E090E0DC
:100C6000F8DD66ED71E082E790E096D340E060E069
:100C700082E790E04DDE62E370E080E090E0E9DD45
:100C800060ED71E082E790E087D340E050E062E2FF
:100C900082E790E067D462EC71E082E790E07CD379
:100CA00040E050E062E282E790E05CD46BEA71E001
:100CB00082E790E071D340E060E082E790E028DED8
:100CC00062E370E080E090E0C4DD66E871E082E716
:100CD00090E062D340E060E082E790E019DE62E3FA
:100CE00070E080E090E0B5DD60E871E082E790E0E0
:100CF00053D340E050E062E282E790E033D464E70F
:100D000071E082E790E048D340E050E062E282E7A1
:100D100090E028D46DE571E082E790E03DD340E0BB
:100D200060E082E790E0F4DD62E370E080E090E074
:100D300090DD63E471E082E790E02ED340E060E074
:100D400082E790E0E5DD62E370E080E090E081DD45
:100D50006DE371E082E790E01FD340E050E062E293
:100D600082E790E0FFD36AE171E082E790E014D37C
:100D700040E060E082E790E0CBDD62E370E080E09D
:100D800090E067DD6FEF70E082E790E005D340E030
:100D900060E082E790E0BCDD62E370E080E090E03C
:100DA00058DD69EF70E082E790E0F6D240E050E075
:100DB00062E282E790E0D6D366ED70E082E790E0F1
:100DC000EBD240E050E062E282E790E0CBD36FEB01
:100DD00070E082E790E0E0D240E060E082E790E0FF
:100DE00097DD62E370E080E090E033DD69E970E078
:100DF00082E790E0D1D240E060E082E790E088DDD9
:100E00006CE271E080E090E024DD6EE770E082E764
:100E100090E0C2D240E060E082E790E079DD62E3FA
:100E200070E080E090E015DD68E770E082E790E038
:100E3000B3D240E050E062E282E790E093D363E611
:100E400070E082E790E0A8D240E050E062E282E702
:100E500090E088D36CE470E082E790E09DD262E39A
:100E600070E080E090E0F5DC40E060E082E790E058
:100E70004FDD68EC70E080E090E0EBDC6EE270E06B
:100E800082E790E089D240E060E082E790E040DDD8
:100E900068E97AE380E090E0DCDC63E270E082E71E
:100EA00090E07AD262E370E080E090E0D2DC40E053
:100EB00060E082E790E02CDD62E370E080E090E0AB
:100EC000C8DC6EE170E082E790E066D262E370E039
:100ED00080E090E0BEDC40E060E082E790E018CD8A
:100EE00008958CE690E09093730080937200F894DC
:100EF000BB9A27EA86E99CE0215080409040E1F7C8
:100F000000C00000BB987FD17894109275001092B9
:100F1000740062E084E790E03EC0DF92EF92FF92BF
:100F20000F931F93CF93DF93C8E0D0E0F12C80E8BC
:100F3000E82EDF2CDE0CD1BE1BDB8C01043389E0F4
:100F400018070CF4FD2CE694219799F78FEF8F0D7D
:100F500081BFCF2DD0E0219681B790E0C817D90787
:100F60008CF006DB8453994097FF03C091958195DF
:100F700091098017910714F4F1B68C0181B78F5F46
:100F800081BFEACFF1BEDF91CF911F910F91FF900A
:100F9000EF90DF900895CF93C62F20918D0024FF0E
:100FA00007C020918E0038E8232720938E0003C0CD
:100FB0002AE520938D00DC01EFE8F0E09C2F9E0FE6
:100FC0008D918193892F8E1B1816D4F36C2F8FE887
:100FD00090E0CADACC5FC0938D00CF910895CF9393
:100FE000DF9380919E00835087FDA8C090919B0065
:100FF00020919A002D3209F09FC0883009F09CC0E2
:10100000CCE0D0E0C91BD109CE55DF4F83EC8093F3
:1010100082008AE58093670010927800888180764C
:1010200019F0CE0194DC7FC09A8110928B008981E7
:10103000811106C010928C002BE830E082E06FC076
:10104000853019F490939F0067C0863009F04EC038
:101050008B81813041F48DEA94E090939D008093E0
:101060009C0082E13FC0823041F48BE894E0909391
:101070009D0080939C0082E235C08330F1F4911191
:1010800008C08BEE94E090939D0080939C0084E0D8
:1010900029C0913041F48FEC94E090939D008093AF
:1010A0009C008CE11FC09230E1F48FEB94E09093B0
:1010B0009D0080939C0080E115C0813241F48DE950
:1010C00094E090939D0080939C0089E00BC0823255
:1010D00041F488E694E090939D0080939C0083E225
:1010E00001C080E090E4909378001DC0883069F0E2
:1010F000893019F49093A1000FC08A3049F08B30E9
:1011000059F48BE480938E0007C021EA30E002C0DE
:101110002BE830E081E003C02BE830E080E0309342
:101120009D0020939C009F81911104C09E8198177F
:1011300008F4892F8093660010929E0080916700CA
:1011400084FF46C0809166008F3F09F441C0C82FDC
:10115000893008F0C8E08C1B809366008091820083
:1011600098E8892780938200CC2331F120919C005C
:1011700030919D008091780086FF0BC0A3E8B0E01D
:10118000F9018C2F8A0F94919D9331968A13FBCF8E
:1011900009C0D901E3E8F0E08C2F8E0F9D91919367
:1011A0008E13FCCF8FEF8C0F90E00196820F931F70
:1011B00090939D0080939C006C2F83E890E0D4D99D
:1011C000CC5FCC3019F08FEF80936600C09367003E
:1011D00084E196B3987131F48150D9F710929F0051
:1011E00010929900C1E08111C0E0809177008C17C6
:1011F00039F0C11103C0F89490DE7894C093770061
:10120000DF91CF910895AC9A8BB780628BBF8BE44E
:1012100080938E008AE580938D00089583B7887F40
:1012200083BF8AB58C7F81608ABD83B7877F83BF88
:1012300083B7887F836083BF089578941F920F924D
:101240000FB60F9211242F933F938F939F93AF93D9
:10125000BF9380917A0090917B00A0917C00B09127
:101260007D00309179002CE7230F2D3728F02FEFE8
:10127000230F0196A11DB11D2093790080937A0060
:1012800090937B00A0937C00B0937D0080917E00C2
:1012900090917F00A0918000B09181000196A11DE6
:1012A000B11D80937E0090937F00A0938000B09347
:1012B0008100BF91AF919F918F913F912F910F909E
:1012C0000FBE0F901F9018952FB7F89460917A0079
:1012D00070917B0080917C0090917D002FBF0895DC
:1012E000789480B7806880BF80B7806480BF8CB5F9
:1012F00080648CBD8FEF8DBD80B7807F876080BF9D
:1013000089B7846089BF8ADF86B1876086B9379ADA
:101310000895E6DF2FDBE4DDFECF0F931F93CF931D
:10132000DF93EC018B01F80161918F01662341F09D
:10133000E881F9810190F081E02DCE010995F3CF8C
:10134000DF91CF911F910F910895EF92FF920F932C
:101350001F93CF93DF937C018A01EB01060F171FC8
:10136000C017D10751F06991D701ED91FC9101901F
:10137000F081E02DC7010995F3CFDF91CF911F9147
:101380000F91FF90EF900895DC01ED91FC91019099
:10139000F081E02D642F0994EF92FF920F931F9339
:1013A000CF93DF938C017B01FB016491C0E0D0E01F
:1013B000662369F0F801A081B181ED91FC91C8012B
:1013C00009952196FE01EE0DFF1D6491F1CFCE012E
:1013D000DF91CF911F910F91FF90EF9008954F9261
:1013E0005F926F927F928F929F92AF92BF92CF92B5
:1013F000DF92EF92FF920F931F93CF93DF93CDB7BE
:10140000DEB7A0970FB6F894DEBF0FBECDBF5C016C
:101410004115510561057105D9F440E350E060E0E4
:1014200070E0A0960FB6F894DEBF0FBECDBFDF917F
:10143000CF911F910F91FF90EF90DF90CF90BF90D1
:10144000AF909F908F907F906F905F904F909CCFC8
:101450008E010F5F1F4FC12CD12C76014801422E07
:10146000512C612C712C8FEFC81AD80AE80AF80A9F
:10147000CB01BA01A30192017DD0CA01F8016193A9
:101480008F01A901BC01411551056105710559F78D
:10149000F1E0CF1AD108E108F108F401EC0DFD1DCF
:1014A00080818A3010F440E301C047E3480F55279C
:1014B00047FD5095652F752FC50166DF81E0C81A7D
:1014C000D108E108F108EFEFCE16DE06EE06FE06C3
:1014D00021F7A0960FB6F894DEBF0FBECDBFDF9107
:1014E000CF911F910F91FF90EF90DF90CF90BF9021
:1014F000AF909F908F907F906F905F904F900895E6
:10150000CF92DF92EF92FF92CF93DF93EC016A01CB
:101510007B012115310539F4DF91CF91FF90EF90D8
:10152000DF90CF9031CF2A30310591F477FF0FC093
:1015300020E030E04DE250E060E070E0E1DFF09468
:10154000E094D094C094C11CD11CE11CF11C2AE091
:10155000B701A601CE01DF91CF91FF90EF90DF9010
:10156000CF903DCF9A01462F552747FD5095652FC7
:10157000752FC6CFA1E21A2EAA1BBB1BFD010DC001
:10158000AA1FBB1FEE1FFF1FA217B307E407F50733
:1015900020F0A21BB30BE40BF50B661F771F881F0F
:1015A000991F1A9469F760957095809590959B01A5
:1015B000AC01BD01CF010895EE0FFF1F0590F4911E
:0815C000E02D0994F894FFCF1F
:1015C8000000B8008000FF5A0000000092048D0956
:0215D800A50963
:00000001FF
