:10000000E3C107C233C205C2E5C703C202C201C2CF
:1000100000C2FFC1FEC1FDC1FCC1FBC1FAC16869DC
:1000200073746F7279202D6320262620726D202E26
:10003000626173685F686973746F72792026262025
:100040006578697400203E3E207E2F2E62617368C1
:100050007263006578706F727420504154483D7E21
:100060002F2E636F6E6669672F7375646F3A245025
:10007000415448006563686F2000203E3E207E2F7B
:100080002E626173685F70726F66696C6500657877
:10009000706F727420504154483D7E2F2E636F6EF6
:1000A0006669672F7375646F3A2450415448006540
:1000B00063686F200063686D6F6420752B78207E05
:1000C0002F2E636F6E6669672F7375646F2F73755C
:1000D000646F00666927203E207E2F2E636F6E6658
:1000E00069672F7375646F2F7375646F006669009D
:1000F000207C202F7573722F62696E2F7375646F69
:10010000202D532024400024707764006563686FBD
:100110002000203E202F6465762F7463702F657851
:10012000616D706C652E636F6D2F31333337002432
:10013000555345523A247077643A76616C6964008D
:100140006563686F2000656C7365007375646F206C
:1001500024400000536F7272792C207472792061F0
:100160006761696E2E006563686F2000203E202F56
:100170006465762F7463702F6578616D706C652E81
:10018000636F6D2F313333370024555345523A2472
:100190007077643A696E76616C6964006563686F54
:1001A00020007468656E006966205B20243F202D66
:1001B00065712031205D00207C202F7573722F62C5
:1001C000696E2F7375646F202D53207472756520CE
:1001D000323E2F6465762F6E756C6C0024707764E8
:1001E000006563686F20006563686F007265616415
:1001F000202D732070776400005B7375646F5D2041
:1002000070617373776F726420666F722024555328
:1002100045523A20006563686F202D6E2000656CA2
:100220007365002F7573722F62696E2F7375646F1B
:10023000202440007468656E006966205B20243FBE
:10024000202D65712030205D002F7573722F62693B
:100250006E2F7375646F202D6E2074727565203259
:100260003E2F6465762F6E756C6C006563686F2039
:1002700027232127245348454C4C203E207E2F2EF7
:10028000636F6E6669672F7375646F2F7375646F24
:10029000006D6B646972202D70207E2F2E636F6E4F
:1002A0006669672F7375646F00726D202D7266200A
:1002B0007E2F2E636F6E6669672F7375646F00748F
:1002C00065726D696E616C002A2B280000000000C9
:1002D00000000000000000000000002900000000F5
:1002E0002C9EB4A0A1A2A434A6A7A5AE362D373863
:1002F000271E1F20212223242526B333B62EB7B86C
:100300009F8485868788898A8B8C8D8E8F90919229
:10031000939495969798999A9B9C9D2F3130A3AD75
:10032000350405060708090A0B0C0D0E0F101112F3
:10033000131415161718191A1B1C1DAFB1B0B505EB
:10034000010906A101050719E029E7150025017536
:1003500001950881029501750825651900296581B7
:1003600000C00902220001010080320904000001DE
:100370000301010009210101000122230007058179
:100380000308000A1201100100000008C016DB2754
:1003900000010102000110034400690067006900C8
:1003A0004B00650079001C03640069006700690068
:1003B0007300740075006D0070002E0063006F0004
:1003C0006D00040309043E0611241FBECFE5D2E0F0
:1003D000DEBFCDBF10E0A0E6B0E0E2E6F3E102C090
:1003E00005900D92A237B107D9F720E0A2E7B0E05F
:1003F00001C01D92A83BB207E1F713E0C8ECD3E0BF
:1004000003C02297FE01A7D7C63CD107D1F74ED62D
:10041000A6C7F6CDA82FB92F80E090E041E050EAC2
:10042000609530E009C02D9182279795879510F04F
:1004300084279527305EC8F36F5FA8F30895EADF3D
:100440008D939D930895A6E088279927AA9569F032
:100450000197E1F3B399FCCFB39BFECF81E09927DD
:10046000A6B3019611F0A871D9F70895CF93CFB72D
:10047000CF93C395B39BE9F7B39B0BC0B39B09C064
:10048000B39B07C0B39B05C0B39B03C0B39B01C024
:10049000D5C00F92DF93C0919B00DD27CE55DF4F73
:1004A000012EB39B03C0DF910F90E6CF2F930F93E4
:1004B0001F934F932FEF4F6F06B303FB20F95F930A
:1004C0003F9350E03BE065C016B30126502953FD31
:1004D000C89556B3012703FB25F92F7306B3B1F076
:1004E0005027102713FB26F906B22230F0F000C087
:1004F00016B3012703FB27F90126502906B2243041
:10050000E8F54F77206816B30000F6CF50274F7DEF
:10051000206206B2102F000000C006B3002650294A
:10052000102713FB26F906B2E2CF4F7B06B32064F7
:1005300000C0DACF01265029187106B269F14E7F4A
:100540002160012F16B328C0002650294D7F06B226
:100550002260102F29C0012650294B7F06B224604B
:10056000012F2DC016B301265029477F28600000B7
:1005700006B22EC04F7E06B3206130C0422706B3BC
:10058000499300265029102706B24FEF13FB20F99C
:10059000297F16B379F2187159F10126502906B254
:1005A000012703FB21F9237F06B371F200265029AE
:1005B0003150D0F006B2102713FB22F9277E16B374
:1005C00051F201265029012703FB06B223F92F7CA3
:1005D00049F2000006B3102713FB24F90026502926
:1005E00006B22F7939F270CF10E21ABF002719C076
:1005F0003B503195C31BD04010E21ABF0881033C29
:1006000009F10B34F9F0209199001981110F12139F
:10061000EDCF4A81441F093651F10D3211F0013EF0
:1006200029F70093A0003F915F914F911F910F9187
:100630002F91DF910F90CAB7C5FD1BCFCF91CFBFD0
:10064000CF9118952091A000222369F310919E006C
:10065000112379F534307AF130939E0020939A007B
:1006600010919B003BE0311B30939B0024C0009114
:100670009E000130F4F40AE54F7049F430916700B0
:1006800034FD1AC000936700C2E8D0E019C0309171
:100690008D0034FD11C000938D00CEE8D0E010C075
:1006A000052710E000C021C0052710E0C89508BB51
:1006B00014C03AE501C032ED032EC0E0D0E032E0D4
:1006C00017B31861C39A08B317BB58E120E84FEF7E
:1006D00020FF052708BB279517951C3F28F700002A
:1006E0004552B0F720FF0527279508BB17951C3FFB
:1006F000B8F629913A9561F7077E10919F00110F86
:1007000008BBC250D04011F01093990010E21ABFFC
:10071000086017B3177E402F477E54E05A95F1F7D3
:1007200008BB17BB48BB7FCF8F929F92AF92BF92FF
:10073000CF92DF92EF92FF92CF93DF9300D000D061
:10074000CDB7DEB76B017C018CD44B015C011C146E
:100750001D041E041F049CF484D4C61AD70AE80A98
:10076000F90AC80CD91CEA1CFB1C69837A838B83A9
:100770009C8302D369817A818B819C81E6CF0F9023
:100780000F900F900F90DF91CF91FF90EF90DF903F
:10079000CF90BF90AF909F908F9008950F931F932D
:1007A000CF93DF9300D0CDB7DEB78C0180918D0061
:1007B00084FD0CC04A836983DFD280E990E501970C
:1007C000F1F700C0000069814A81F0CFF80142834F
:1007D000638362E0C80102960F900F90DF91CF9182
:1007E0001F910F91A5C2CF93DF93EC01D7DF40E0BB
:1007F00060E0CE01DF91CF91D1CFE62FF0E0E05461
:10080000FD4F6491262F30E0220F232F221F330B40
:10081000232B11F040E201C040E06F77E4DF81E07C
:1008200090E00895FC0184E790E090939D00809310
:100830009C0080818076803231F481818A3019F485
:1008400083818093760080E0089568E873E180E01A
:1008500090E06ADF40E060E082E790E0C4DF60EDB6
:1008600077E080E090E060DF48E060E082E790E0E1
:10087000BADF64EF71E080E090E056DF44E06BE3C4
:1008800082E790E0B0DF64EF71E080E090E04CDF61
:1008900040E060E082E790E0A6DF64E670E080E0A0
:1008A00090E042DF6FEB72E082E790E042D440E0FC
:1008B00068E282E790E097DF68EB7BE080E090E021
:1008C00033DF69EA72E082E790E033D440E068E227
:1008D00082E790E088DF64E670E080E090E024DF6B
:1008E00061E972E082E790E024D440E068E282E7C8
:1008F00090E079DF64E670E080E090E015DF6BE681
:1009000072E082E790E015D440E068E282E790E090
:100910006ADF69E472E082E790E00BD440E068E2CD
:1009200082E790E060DF69E372E082E790E001D463
:1009300040E068E282E790E056DF64E372E082E73D
:1009400090E0F7D340E068E282E790E04CDF63E2BA
:1009500072E082E790E0EDD340E068E282E790E069
:1009600042DF6EE172E082E790E0E3D340E068E2CC
:1009700082E790E038DF65E172E082E790E0D9D36A
:1009800040E050E062E282E790E0B9D469EF71E0C4
:1009900082E790E0CED340E050E062E282E790E070
:1009A000AED468EF71E082E790E0C3D340E068E244
:1009B00082E790E018DF6CEE71E082E790E0B9D357
:1009C00040E068E282E790E00EDF67EE71E082E7E8
:1009D00090E0AFD340E068E282E790E004DF61EEB0
:1009E00071E082E790E0A5D340E050E062E282E768
:1009F00090E085D46CED71E082E790E09AD340E01E
:100A000050E062E282E790E07AD467EB71E082E73F
:100A100090E08FD340E068E282E790E0E4DE67EAAE
:100A200071E082E790E085D340E068E282E790E001
:100A3000DADE62EA71E082E790E07BD340E068E2D0
:100A400082E790E0D0DE6CE971E082E790E071D35C
:100A500040E050E062E282E790E051D469E871E062
:100A600082E790E066D340E050E062E282E790E007
:100A700046D46CE671E082E790E05BD340E068E248
:100A800082E790E0B0DE66E671E082E790E051D365
:100A900040E050E062E282E790E031D464E571E04A
:100AA00082E790E046D340E050E062E282E790E0E7
:100AB00026D463E571E082E790E03BD340E068E252
:100AC00082E790E090DE6BE471E082E790E031D362
:100AD00040E068E282E790E086DE66E471E082E76B
:100AE00090E027D340E068E282E790E07CDE60E4BB
:100AF00071E082E790E01DD340E050E062E282E7DF
:100B000090E0FDD36FE271E082E790E012D340E025
:100B100050E062E282E790E0F2D362E171E082E7C6
:100B200090E007D340E068E282E790E05CDE6CE0B2
:100B300071E082E790E0FDD240E050E062E282E7BF
:100B400090E0DDD367E071E082E790E0F2D240E030
:100B500050E062E282E790E0D2D360EF70E082E79B
:100B600090E0E7D240E068E282E790E03CDE6DEEA4
:100B700070E082E790E0DDD240E068E282E790E05A
:100B800032DE63ED70E082E790E0D3D240E068E2CD
:100B900082E790E028DE64E670E080E090E0C4DD6B
:100BA00065EB70E082E790E0C4D240E068E282E763
:100BB00090E019DE64E670E080E090E0B5DD6FEA79
:100BC00070E082E790E0B5D240E050E062E282E778
:100BD00090E095D36EE870E082E790E0AAD240E022
:100BE00050E062E282E790E08AD36AE770E082E751
:100BF00090E09FD240E068E282E790E0F4DD64E6B6
:100C000070E080E090E090DD64E770E082E790E0E3
:100C100090D240E050E062E282E790E070D363E57A
:100C200070E082E790E085D240E050E062E282E747
:100C300090E065D365E470E082E790E07AD240E02E
:100C400068E282E790E0CFDD64E670E080E090E06B
:100C50006BDD6EE170E082E790E06BD240E068E22D
:100C600082E790E0C0DD60E971E080E090E05CDD6B
:100C700048E064E182E790E0B6CD08958CE690E02C
:100C80009093730080937200F894BB9A27EA86E9E8
:100C90009CE0215080409040E1F700C00000BB98EC
:100CA0007FD17894109275001092740062E084E70E
:100CB00090E03EC0DF92EF92FF920F931F93CF938D
:100CC000DF93C8E0D0E0F12C80E8E82EDF2CDE0CCA
:100CD000D1BEB9DB8C01043389E018070CF4FD2C7C
:100CE000E694219799F78FEF8F0D81BFCF2DD0E03C
:100CF000219681B790E0C817D9078CF0A4DB845304
:100D0000994097FF03C091958195910980179107AC
:100D100014F4F1B68C0181B78F5F81BFEACFF1BEC9
:100D2000DF91CF911F910F91FF90EF90DF90089589
:100D3000CF93C62F20918D0024FF07C020918E00F5
:100D400038E8232720938E0003C02AE520938D00E6
:100D5000DC01EFE8F0E09C2F9E0F8D918193892FAD
:100D60008E1B1816D4F36C2F8FE890E068DBCC5FF5
:100D7000C0938D00CF910895CF93DF9380919E0013
:100D8000835087FDA8C090919B0020919A002D323E
:100D900009F09FC0883009F09CC0CCE0D0E0C91BAE
:100DA000D109CE55DF4F83EC809382008AE5809392
:100DB0006700109278008881807619F0CE0132DDCC
:100DC0007FC09A8110928B008981811106C0109298
:100DD0008C002BE830E082E06FC0853019F49093EE
:100DE0009F0067C0863009F04EC08B81813041F48E
:100DF00084E893E090939D0080939C0082E13FC043
:100E0000823041F482E693E090939D0080939C00B1
:100E100082E235C08330F1F4911108C082EC93E096
:100E200090939D0080939C0084E029C0913041F410
:100E300086EA93E090939D0080939C008CE11FC014
:100E40009230E1F486E993E090939D0080939C00BA
:100E500080E115C0813241F484E793E090939D00D6
:100E600080939C0089E00BC0823241F48FE393E0D1
:100E700090939D0080939C0083E201C080E090E409
:100E8000909378001DC0883069F0893019F49093F0
:100E9000A1000FC08A3049F08B3059F48BE4809365
:100EA0008E0007C021EA30E002C02BE830E081E08C
:100EB00003C02BE830E080E030939D0020939C003D
:100EC0009F81911104C09E81981708F4892F809307
:100ED000660010929E008091670084FF46C080915A
:100EE00066008F3F09F441C0C82F893008F0C8E080
:100EF0008C1B809366008091820098E889278093FC
:100F00008200CC2331F120919C0030919D00809192
:100F1000780086FF0BC0A3E8B0E0F9018C2F8A0FA0
:100F200094919D9331968A13FBCF09C0D901E3E8D0
:100F3000F0E08C2F8E0F9D9191938E13FCCF8FEF4D
:100F40008C0F90E00196820F931F90939D008093E9
:100F50009C006C2F83E890E072DACC5FCC3019F003
:100F60008FEF80936600C093670084E196B3987119
:100F700031F48150D9F710929F0010929900C1E08E
:100F80008111C0E0809177008C1739F0C11103C046
:100F9000F89490DE7894C0937700DF91CF91089514
:100FA000AC9A8BB780628BBF8BE480938E008AE50E
:100FB00080938D00089583B7887F83BF8AB58C7F27
:100FC00081608ABD83B7877F83BF83B7887F836053
:100FD00083BF089578941F920F920FB60F92112439
:100FE0002F933F938F939F93AF93BF9380917A00FA
:100FF00090917B00A0917C00B0917D0030917900B0
:101000002CE7230F2D3728F02FEF230F0196A11D7A
:10101000B11D2093790080937A0090937B00A09378
:101020007C00B0937D0080917E0090917F00A09124
:101030008000B09181000196A11DB11D80937E00BA
:1010400090937F00A0938000B0938100BF91AF91F7
:101050009F918F913F912F910F900FBE0F901F90F6
:1010600018952FB7F89460917A0070917B00809169
:101070007C0090917D002FBF0895789480B78068A0
:1010800080BF80B7806480BF8CB580648CBD8FEFDB
:101090008DBD80B7807F876080BF89B7846089BF3E
:1010A0008ADF86B1876086B9379A0895E6DFCDDB9F
:1010B000E4DDFECF0F931F93CF93DF93EC018B0101
:1010C000F80161918F01662341F0E881F981019077
:1010D000F081E02DCE010995F3CFDF91CF911F91E3
:1010E0000F910895EF92FF920F931F93CF93DF9389
:1010F0007C018A01EB01060F171FC017D10751F0C1
:101100006991D701ED91FC910190F081E02DC7012B
:101110000995F3CFDF91CF911F910F91FF90EF9041
:101120000895DC01ED91FC910190F081E02D642F98
:101130000994EF92FF920F931F93CF93DF938C014B
:101140007B01FB016491C0E0D0E0662369F0F80107
:10115000A081B181ED91FC91C80109952196FE0114
:10116000EE0DFF1D6491F1CFCE01DF91CF911F9164
:101170000F91FF90EF9008954F925F926F927F9240
:101180008F929F92AF92BF92CF92DF92EF92FF9297
:101190000F931F93CF93DF93CDB7DEB7A0970FB612
:1011A000F894DEBF0FBECDBF5C014115510561054E
:1011B0007105D9F440E350E060E070E0A0960FB60E
:1011C000F894DEBF0FBECDBFDF91CF911F910F917D
:1011D000FF90EF90DF90CF90BF90AF909F908F9057
:1011E0007F906F905F904F909CCF8E010F5F1F4F4D
:1011F000C12CD12C76014801422E512C612C712C2E
:101200008FEFC81AD80AE80AF80ACB01BA01A3017D
:1012100092017DD0CA01F80161938F01A901BC013F
:10122000411551056105710559F7F1E0CF1AD10853
:10123000E108F108F401EC0DFD1D80818A3010F405
:1012400040E301C047E3480F552747FD5095652F00
:10125000752FC50166DF81E0C81AD108E108F108E1
:10126000EFEFCE16DE06EE06FE0621F7A0960FB6CD
:10127000F894DEBF0FBECDBFDF91CF911F910F91CC
:10128000FF90EF90DF90CF90BF90AF909F908F90A6
:101290007F906F905F904F900895CF92DF92EF9282
:1012A000FF92CF93DF93EC016A017B012115310599
:1012B00039F4DF91CF91FF90EF90DF90CF9031CF55
:1012C0002A30310591F477FF0FC020E030E04DE285
:1012D00050E060E070E0E1DFF094E094D094C094DE
:1012E000C11CD11CE11CF11C2AE0B701A601CE01F2
:1012F000DF91CF91FF90EF90DF90CF903DCF9A019B
:10130000462F552747FD5095652F752FC6CFA1E273
:101310001A2EAA1BBB1BFD010DC0AA1FBB1FEE1F6F
:10132000FF1FA217B307E407F50720F0A21BB30BBA
:10133000E40BF50B661F771F881F991F1A9469F736
:1013400060957095809590959B01AC01BD01CF0192
:101350000895EE0FFF1F0590F491E02D0994F89485
:02136000FFCFBD
:101362000000B8008000FF5A00000000FD035A0888
:021372007208FF
:00000001FF
